:100000000C9478000C9495000C9495000C94950039
:100010000C9495000C9495000C9495000C9495000C
:100020000C9495000C9495000C9495000C949500FC
:100030000C9495000C9495000C9495000C949500EC
:100040000C9495000C9495000C9495000C949500DC
:100050000C9495000C9495000C9495000C949500CC
:100060000C9495000C9495000C9495000C949500BC
:100070000C9495000C9495000C9495000F018096BB
:100080001180FFB103012C2DB203012C2DB3060109
:100090002C2D012C2DB40107C003A20284C101C57F
:1000A000C2020A00C3028A2AC4028AEEC5010E20D7
:1000B000003601C83A0105022A040000007F2B0423
:1000C0000000009F04E010021C07123732292D297E
:1000D000252B3900010310E110031D07062E2C29E2
:1000E0002D2E2E373F0000021013800A2980640055
:1000F00011241FBECFEFD8E0DEBFCDBF12E0A0E0DD
:10010000B1E0E6E4F9E102C005900D92A032B1073A
:10011000D9F713E0A0E2B2E001C01D92A137B10708
:10012000E1F70E94DE000C94A10C0C940000E7EAB9
:10013000F2E081E090E08193919322E0EF3CF207BE
:10014000D1F7AFE2B2E0FD011192119282E0E73AFD
:10015000F807D1F71092D0021092CF02E1EDF2E051
:1001600020E03EE18D919C911197019711F420833D
:100170003183129632962F5F2035A1F70895809132
:10018000CF029091D0020197C1F4AFECB2E0EFE65C
:10019000F3E08D919C911197019721F480818283E6
:1001A000818183831297329782E0AF32B80789F753
:1001B0008091D1028F5F8093D10208950F931F9396
:1001C000CF93DF930E9414020E9497008EE790E085
:1001D0000E94D2020F98179AC4ECD9E00799FECF7B
:1001E00007990CC08AE090E06AE070E048E750E0D0
:1001F00028E730E000E410E00E946703CE01019799
:10020000F1F7ECCF0F931F938AE090E06AE070E083
:100210004EE150E02AE030E000E410E00E94670385
:100220008AE090E06AE070E04AE050E02EE130E0E1
:100230000E9467038AE090E06EE170E04EE150E0DA
:100240002EE130E00E9467038EE190E06EE170E005
:100250004EE150E022E330E00E9467038EE190E03F
:1002600062E370E04AE050E022E330E00E9467037E
:100270001F910F9108950F931F938AE090E06AE019
:1002800070E044E650E02AE030E000E410E00E9434
:1002900067038CE390E06AE070E04CE350E02CE30D
:1002A00030E00E9467038EE690E064E170E04EE685
:1002B00050E02EE630E00E9467031F910F910895F1
:1002C0000F931F93CF93DF930FE212E0C1EDD2E0C3
:1002D000F80180819181019741F46981888190E0E2
:1002E00070E040E450E00E94B7020E5F1F4F22967C
:1002F000F2E00F3C1F0761F7DF91CF911F910F9143
:1003000008956F927F929F92AF92BF92CF92DF92A9
:10031000EF92FF920F931F93CF93DF93FC01EC01B9
:100320002196949080E9682E81E0782E6CC0AE0111
:100330004F5F5F4FFE0184912A988EBD0DB407FE7A
:10034000FDCF9A012F5F3F4FFA015491452F4F7710
:10035000F901942F08C084912A9A8EBD0DB407FE2E
:10036000FDCF319691509923B1F7E901C40FD11D0A
:1003700057FF48C0FE012196E4916E2F70E06F3F59
:10038000710511F464EF71E080E090E00E94D509FE
:100390005B016C0120E030E04AE755E40E94F7077A
:1003A0007B018C0120E030E040E85FE30E945109CE
:1003B00088231CF461E070E022C0C801B70120E08E
:1003C0003FEF4FE757E40E94F1081816A4F4C60166
:1003D000B50120E030E040E251E40E94F7070E94BE
:1003E000210605C0C3010197F1F761507040611506
:1003F0007105C1F707C0C801B7010E942106CB01F2
:100400000197F1F79A94992009F091CFDF91CF915C
:100410001F910F91FF90EF90DF90CF90BF90AF9022
:100420009F907F906F900895109221021092200269
:10043000229A219A209A279A259A249A28982F98C6
:100440002D982C9A8CB580658CBD8CB58C7F8CBD1D
:100450008DB58E7F8DBD8CB58F7D8CBD8CB5837F2A
:100460008CBD299A88EE93E020E931E0F9013197BB
:10047000F1F70197D9F7299888EE93E020E931E068
:10048000F9013197F1F70197D9F7299A88EE93E0AE
:1004900020E931E0F9013197F1F70197D9F78CE7BD
:1004A00090E00E94810187EB90E00E94810184EC42
:1004B00090E00E948101239A84B5816884BD85B54E
:1004C000816085BD86E087BD08958CB58F7B8CBD2E
:1004D0000895982F2A988AE28EBD0DB407FEFDCFAD
:1004E0002A9A1EBC0DB407FEFDCF80912002980F02
:1004F0002A9A9EBD0DB407FEFDCF2A9A1EBC0DB4EC
:1005000007FEFDCF840F2A9A8EBD0DB407FEFDCFE6
:100510002A988BE28EBD0DB407FEFDCF2A9A1EBC31
:100520000DB407FEFDCF80912102680F2A9A6EBD9F
:100530000DB407FEFDCF2A9A1EBC0DB407FEFDCFF9
:10054000820F2A9A8EBD0DB407FEFDCF2A988CE249
:100550008EBD0DB407FEFDCF08952A9A9EBD0DB441
:1005600007FEFDCF8EBD0DB407FEFDCF0895CF93DE
:10057000DF93FC019B01EA0197FD11C080389105D2
:1005800074F477FD0CC0603871054CF43196AF01FE
:100590002F5F3F4F0E946902CE010E94AD02DF91A2
:1005A000CF9108950F931F93CF93DF93EC0180E0D9
:1005B00090E060E070E04FE750E02FE730E00E940D
:1005C000690200E810E8CE010E94AD021150D9F78F
:1005D0000150C1F7DF91CF911F910F9108958823AA
:1005E00011F480E201C081E22A988EBD0DB407FEAD
:1005F000FDCF089570E06C7F707033E0660F771F59
:100600003A95E1F746954695469550E0642B752B53
:1006100090E0887F9070982F8827682B792BCB01EA
:100620000895909323028093220270932502609391
:100630002402109227021092260210922902109290
:10064000280210922D0221E020932C028FEF9FEFC1
:1006500090932B0280932A0220932E020895909368
:10066000270280932602709329026093280208953E
:1006700090932B0280932A020895882309F481E045
:1006800080932C02089580932E0208958091220277
:10069000909123020895809124029091250208955B
:1006A000837080932D02813031F0813060F0823090
:1006B00051F0833041F4809124029091250290936F
:1006C000230280932202089580912D0208952F9293
:1006D0003F924F925F926F927F928F929F92AF92D2
:1006E000BF92CF92DF92EF92FF920F931F93CF931F
:1006F000DF937C01EB016A01180144245524A90110
:10070000461B570B57FF03C0509541955F4FC601DD
:100710008E199F0997FF03C0909581959F4F84176D
:1007200095079CF491E0492E512CCE018E259F25F2
:10073000C827D9277E01E826F926C9018C259D25E1
:10074000282739276901C826D926CE14DF0484F466
:10075000C6018E259F25C826D9267601E826F926CA
:10076000C9018C279D2728273927E901C827D927C0
:1007700036016E187F085901AC1ABD0AB7FE04C0D5
:10078000B094A194B108B394C217D30724F088247D
:100790008A94982C03C081E0882E912CC30162E0DA
:1007A00070E00E94430C8B0116C04114510419F0F3
:1007B000CE01B70102C0C701BE01A1010E94B7026C
:1007C0000A191B0917FF04C0C80DD91D060D171DF6
:1007D0000894E11CF11CCE14DF043CF7DF91CF91AB
:1007E0001F910F91FF90EF90DF90CF90BF90AF904F
:1007F0009F908F907F906F905F904F903F902F9041
:1008000008952F923F924F925F926F927F928F92B4
:100810009F92AF92BF92CF92DF92EF92FF920F938F
:100820001F93DF93CF9300D000D0CDB7DEB76C011C
:10083000FB014A0159013801209122023091230223
:10084000821793070CF09CC040912402509125021E
:10085000641775070CF094C0C4018C0D9D1D2817FA
:1008600039071CF449018C189D08C5018E0F9F1F84
:10087000481759071CF45A01AE1ABF0AEE2009F0B6
:100880005EC07F01C982DA8285010E0F1F1F180129
:10089000089421083108C601BF01A60191010E94F8
:1008A0006902250103C0C3010E94AD0208944108FA
:1008B00051082FEF42162FEF5206A9F7C80CD91C8A
:1008C000260108944108510889819A81B701A20143
:1008D00097010E9469029C828B8203C0C3010E941F
:1008E000AD028B819C8101979C838B838F5F9F4F8F
:1008F000A9F7C601B701A60191010E94690203C0D0
:10090000C3010E94AD020894A108B108BFEFAB1665
:10091000BFEFBB06A9F789819A81B801A2019801AE
:100920000E94690203C0C3010E94AD0208948108BD
:100930009108EFEF8E16EFEF9E06A9F721C0A601F2
:1009400041505040480D591D9F01215030402A0D03
:100950003B1DC601BF010E94690265010CC0C301B5
:100960000E94AD020894E108F1081E141F04BCF3B4
:100970000894C108D1081C141D0414F47401F5CFA7
:100980000F900F900F900F90CF91DF911F910F91CB
:10099000FF90EF90DF90CF90BF90AF909F908F909F
:1009A0007F906F905F904F903F902F9008952F927F
:1009B0003F924F925F926F927F928F929F92AF92EF
:1009C000BF92CF92DF92EF92FF920F931F93DF932C
:1009D000CF93CDB7DEB72C970FB6F894DEBF0FBE1E
:1009E000CDBF282F8A3079F420912C0230E0B3E07B
:1009F000220F331FBA95E1F78091280290912902C6
:100A0000820F931FF1C08D3009F4F6C0609026026A
:100A10007090270240912802509129025B834A83FB
:100A200080912A0290912B0298878F8390912C02BB
:100A300099838091220290912302681679060CF026
:100A40009CC08091240290912502481759070CF010
:100A500094C0F981EF2FF0E0FC87EB87CF01880F7E
:100A6000991F880F991F8E0F9F1F860D971D1816AF
:100A700019060CF082C0CF01F3E0880F991FFA9598
:100A8000E1F7840F951F181619060CF076C085E063
:100A9000289F10011124CC24DD244424552425E072
:100AA000C21611F4FF2402C0F101F4909201260D48
:100AB000371D3D832C838A809B8054011E82A601B2
:100AC000460D571D5A874987F0FE3AC080912D0286
:100AD00059815130C1F480FF0EC0609122027091A3
:100AE0002302661977096C197D098B859C85681B23
:100AF000790BC50103C089859A85B5014F81588559
:100B00000E94B7021DC080FF0FC060912202709149
:100B100023026619770964197509EB85FC856E1B3C
:100B20007F0BC401AF0105C08C819D81B4014B8551
:100B30005C859A010F811885EE24E3940E940104DC
:100B4000FE81FF5FFE830894A11CB11C2B853C85B0
:100B5000820E931EF83011F0F694B6CF0894C11CA3
:100B6000D11C4B855C85440E551E0894211C311CFC
:100B700056E0C516D10409F092CF80912C02682F5F
:100B800070E0AB01440F551F460F571F440F551F10
:100B90008091260290912702480F591F50932702F7
:100BA0004093260280912E02882331F18AEF9FEF35
:100BB000FC016E9FC0016F9F900D7E9F900D1124D0
:100BC0002091220230912302820F931F84179507F0
:100BD0009CF423E0660F771F2A95E1F780912802A5
:100BE00090912902860F971F9093290280932802E3
:100BF00010922702109226022C960FB6F894DEBFB0
:100C00000FBECDBFCF91DF911F910F91FF90EF905D
:100C1000DF90CF90BF90AF909F908F907F906F901C
:100C20005F904F903F902F900895CF93DF93EC010A
:100C300002C00E94D70489918823D9F7DF91CF9110
:100C40000895EF92FF920F931F937B018C0120E098
:100C500030E040E05FE40E94210988238CF0C80165
:100C6000B70120E030E040E05FE40E9499070E9475
:100C700081099B01AC01205030404040504806C0E3
:100C8000C801B7010E9481099B01AC01B901CA01E9
:100C90001F910F91FF90EF900895A0E0B0E0E3E581
:100CA000F6E00C946A0CDC012B01FA019C91923065
:100CB00008F439C1EB018881823008F433C19430E3
:100CC00069F4843009F02FC111969C9111978981A4
:100CD000981709F428C1A8E1B1E025C1843009F4CE
:100CE00021C18230A9F4923009F01DC19A01AD01F1
:100CF00088E0EA010990AE01E90109929E01815064
:100D0000C1F7E201898111969C918923818308C1F1
:100D1000923009F407C112962D903C901397EB0185
:100D20008A819B811496AD90BD90CD90DC901797F1
:100D3000EC80FD800E811F819101281B390BB901C8
:100D400037FF04C066277727621B730B603271057B
:100D50000CF061C0121613066CF537014801062E1F
:100D600004C096948794779467940A94D2F721E00C
:100D700030E040E050E004C0220F331F441F551FF5
:100D80006A95D2F721503040404050402E213F21FB
:100D900040235123211531054105510521F021E062
:100DA00030E040E050E079018A01E628F728082980
:100DB00019293CC0232BD1F1260E371E35014601DF
:100DC000062E04C096948794779467940A94D2F779
:100DD00021E030E040E050E004C0220F331F441F08
:100DE000551F6A95D2F721503040404050402A218B
:100DF0003B214C215D21211531054105510521F093
:100E000021E030E040E050E059016A01A628B7280F
:100E1000C828D9280BC0821593052CF01C01AA24E0
:100E2000BB24650103C0EE24FF24870111969C9129
:100E3000D20111968C91981709F445C0992339F085
:100E4000A80197012A193B094C095D0906C0A601B2
:100E500095012E193F09400B510B57FD08C0118217
:100E60003382228224833583468357831DC081E0E9
:100E700081833382228288279927DC01821B930B8E
:100E8000A40BB50B84839583A683B7830DC0220F73
:100E9000331F441F551F2483358346835783828124
:100EA0009381019793838283248135814681578181
:100EB000DA01C9010197A109B1098F5F9F4FAF4FB7
:100EC000BF4328F30BC0918333822282EA0CFB1CC0
:100ED0000C1D1D1DE482F5820683178383E0808349
:100EE000248135814681578157FF1AC0C901AA273D
:100EF00097FDA095BA2F81709070A070B070569534
:100F0000479537952795822B932BA42BB52B84835C
:100F10009583A683B783828193810196938382838D
:100F2000DF0101C0D201CD01CDB7DEB7E2E10C9403
:100F3000860CA0E2B0E0EFE9F7E00C94760C698350
:100F40007A838B839C832D833E834F835887E9E08C
:100F5000EE2EF12CEC0EFD1ECE010196B7010E9483
:100F6000720B8E010F5E1F4FCE010596B8010E94D5
:100F7000720B8A8991E089278A8BC701B801AE017B
:100F8000475E5F4F0E944D060E949D0AA096E6E0D4
:100F90000C94920CA0E2B0E0E0EDF7E00C94760C3B
:100FA00069837A838B839C832D833E834F83588709
:100FB000F9E0EF2EF12CEC0EFD1ECE010196B701EB
:100FC0000E94720B8E010F5E1F4FCE010596B80175
:100FD0000E94720BC701B801AE01475E5F4F0E94CD
:100FE0004D060E949D0AA096E6E00C94920CA0E2A9
:100FF000B0E0EDEFF7E00C946A0C69837A838B83A1
:101000009C832D833E834F835887CE010196BE017A
:10101000675F7F4F0E94720BCE010596BE016F5E27
:101020007F4F0E94720B9985923088F089898230B7
:10103000C8F0943019F4823051F404C0843029F49B
:10104000923081F488E191E0C6C0923049F420E00A
:101050009A858A89981321E02A87CE010996BBC018
:10106000823049F420E09A858A89981321E02A8BFE
:10107000CE014196B0C02D843E844F8458886D883F
:101080007E888F88988CEE24FF248701AA24BB24B5
:10109000650140E050E060E070E0E0E0F0E0C101B8
:1010A00081709070892BE9F0E60CF71C081D191D62
:1010B0009A01AB012A0D3B1D4C1D5D1D80E090E0A7
:1010C000A0E0B0E0E614F7040805190520F481E07B
:1010D00090E0A0E0B0E0BA01A901480F591F6A1FD3
:1010E0007B1FAA0CBB1CCC1CDD1C97FE08C081E03A
:1010F00090E0A0E0B0E0A82AB92ACA2ADB2A3196FB
:10110000E032F10549F0660C771C881C991C569456
:10111000479437942794C3CFFA85EA892B893C8971
:101120008B859C85280F391F2E5F3F4F17C0CA0142
:1011300081709070892B61F016950795F794E7946C
:1011400080E090E0A0E0B0E8E82AF92A0A2B1B2B07
:1011500076956795579547952F5F3F4F77FDE7CF7A
:101160000CC0440F551F661F771F17FD4160EE0C22
:10117000FF1C001F111F21503040403090E05907E4
:1011800090E0690790E4790760F32B8F3C8FDB01D7
:10119000CA018F779070A070B07080349105A1055E
:1011A000B10561F447FD0AC0E114F1040105110520
:1011B00029F0405C5F4F6F4F7F4F40781A8EFE17CB
:1011C00011F081E08A8F4D8F5E8F6F8F78A383E05F
:1011D000898FCE0149960E949D0AA096E2E10C9467
:1011E000860CA8E1B0E0E7EFF8E00C94760C698398
:1011F0007A838B839C832D833E834F83588789E03A
:10120000E82EF12CEC0EFD1ECE010196B7010E94D6
:10121000720B8E010F5E1F4FCE010596B8010E9422
:10122000720B8985823040F08989823028F0C701AD
:10123000B8010E94EA0B01C08FEF6896E6E00C94BB
:10124000920CA8E1B0E0E7E2F9E00C94760C698337
:101250007A838B839C832D833E834F83588789E0D9
:10126000E82EF12CEC0EFD1ECE010196B7010E9476
:10127000720B8E010F5E1F4FCE010596B8010E94C2
:10128000720B8985823040F08989823028F0C7014D
:10129000B8010E94EA0B01C08FEF6896E6E00C945B
:1012A000920CA8E1B0E0E7E5F9E00C94760C6983D4
:1012B0007A838B839C832D833E834F83588789E079
:1012C000E82EF12CEC0EFD1ECE010196B7010E9416
:1012D000720B8E010F5E1F4FCE010596B8010E9462
:1012E000720B8985823040F08989823028F0C701ED
:1012F000B8010E94EA0B01C081E06896E6E00C9418
:10130000920CACE0B0E0E7E8F9E00C947A0C698369
:101310007A838B839C83CE010196BE016B5F7F4FE6
:101320000E94720B8D81823061F1823050F18430E5
:1013300021F48E81882351F12EC02F81388537FD0D
:1013400020C06E812F3131051CF06623F9F023C0D7
:101350008EE190E0821B930B29853A854B855C8555
:1013600004C056954795379527958A95D2F76623F9
:10137000B1F050954095309521953F4F4F4F5F4FBD
:101380000EC020E030E040E050E009C02FEF3FEF1A
:101390004FEF5FE704C020E030E040E050E8B901E3
:1013A000CA012C96E2E00C94960CA8E0B0E0EBEDBC
:1013B000F9E00C94720C7B018C01611571058105BB
:1013C000910519F482E0898360C083E089838EE10E
:1013D000C82ED12CDC82CB82ED82FE820F8318874F
:1013E000C801B7010E944E0AFC013197F7FF3BC0CC
:1013F000222733272E1B3F0B57016801022E04C002
:10140000D694C794B794A7940A94D2F740E050E0DA
:1014100060E070E081E090E0A0E0B0E004C0880F00
:10142000991FAA1FBB1F2A95D2F70197A109B109DD
:101430008E219F21A023B1230097A105B10521F0A2
:1014400041E050E060E070E04A295B296C297D2989
:101450004D835E836F8378878EE190E08E1B9F0BB8
:101460009C838B8312C0309781F00E2E04C0EE0C4B
:10147000FF1C001F111F0A94D2F7ED82FE820F831A
:101480001887CE1ADF0ADC82CB821A82CE0101963F
:101490000E949D0A2896EAE00C948E0CEF92FF922F
:1014A0000F931F937B018C0180E0E81680E0F80623
:1014B00081E0080780E0180788F48FEFE816F10450
:1014C0000105110531F028F088E090E0A0E0B0E0DF
:1014D00017C080E090E0A0E0B0E012C080E0E81625
:1014E00080E0F80680E0080781E0180728F088E12E
:1014F00090E0A0E0B0E004C080E190E0A0E0B0E0C7
:1015000020E230E040E050E0281B390B4A0B5B0B37
:1015100004C016950795F794E7948A95D2F7F701DA
:10152000E05EFE4F8081281B310941095109C90144
:101530001F910F91FF90EF900895DF92EF92FF922D
:101540000F931F93FC01E480F58006811781D18001
:101550008081823048F480E090E0A0E1B0E0E82AA9
:10156000F92A0A2B1B2BA5C0843009F49FC08230B6
:1015700021F4EE24FF24870105C0E114F1040105E4
:10158000110519F4E0E0F0E096C0628173819FEFED
:10159000623879070CF05BC022E83FEF261B370B5F
:1015A0002A3131052CF020E030E040E050E02AC044
:1015B000B801A701022E04C0769567955795479507
:1015C0000A94D2F781E090E0A0E0B0E004C0880F78
:1015D000991FAA1FBB1F2A95D2F70197A109B1092C
:1015E0008E219F21A023B1230097A105B10521F0F1
:1015F00081E090E0A0E0B0E09A01AB01282B392B0C
:101600004A2B5B2BDA01C9018F779070A070B07004
:1016100080349105A105B10539F427FF09C0205C8C
:101620003F4F4F4F5F4F04C0215C3F4F4F4F5F4FC5
:10163000E0E0F0E02030A0E03A07A0E04A07A0E4B4
:101640005A0710F0E1E0F0E079018A0127C0603824
:10165000710564F5FB01E158FF4FD801C7018F7791
:101660009070A070B07080349105A105B10539F477
:10167000E7FE0DC080E490E0A0E0B0E004C08FE39E
:1016800090E0A0E0B0E0E80EF91E0A1F1B1F17FF54
:1016900005C016950795F794E794319687E016955F
:1016A0000795F794E7948A95D1F705C0EE24FF24B7
:1016B0008701EFEFF0E06E2F679566276795902F13
:1016C0009F77D794DD24D7948E2F8695492F462B6C
:1016D000582F5D29B701CA011F910F91FF90EF901C
:1016E000DF900895FC01DB01408151812281622F4E
:1016F0006F7770E0221F2227221F9381892F880F86
:10170000822B282F30E0991F9927991F11969C93BF
:10171000119721153105A9F541155105610571058F
:1017200011F482E037C082E89FEF13969C938E936A
:1017300012979A01AB0167E0220F331F441F551F18
:101740006A95D1F783E08C930DC0220F331F441F9D
:10175000551F12968D919C911397019713969C9308
:101760008E931297203080E0380780E0480780E4AD
:10177000580758F314962D933D934D935C93179708
:1017800008952F3F310579F4411551056105710523
:1017900019F484E08C93089564FF03C081E08C9376
:1017A00012C01C9210C02F57304013963C932E93BA
:1017B000129783E08C9387E0440F551F661F771FB5
:1017C0008A95D1F7706414964D935D936D937C93D5
:1017D000179708951F93DC01FB019C91923008F448
:1017E00047C08081823008F443C0943051F4119690
:1017F0001C91843099F58181682F70E0611B71091B
:101800003FC0843021F0923031F48230B9F18181CF
:10181000882389F12DC011961C9111978230F1F027
:1018200081811817D9F412962D913C9113978281DA
:1018300093818217930794F028173907BCF0149608
:101840008D919D910D90BC91A02D24813581468173
:101850005781281739074A075B0718F4112341F00D
:101860000AC082179307A407B50740F4112319F0A3
:1018700061E070E005C06FEF7FEF02C060E070E0F4
:10188000CB011F91089597FB092E07260AD077FDFB
:1018900004D00CD006D000201AF4709561957F4FCB
:1018A0000895F6F7909581959F4F0895AA1BBB1B4D
:1018B00051E107C0AA1FBB1FA617B70710F0A61B50
:1018C000B70B881F991F5A95A9F780959095BC0171
:1018D000CD0108952F923F924F925F926F927F9227
:1018E0008F929F92AF92BF92CF92DF92EF92FF9230
:1018F0000F931F93CF93DF93CDB7DEB7CA1BDB0BDC
:101900000FB6F894DEBF0FBECDBF09942A88398880
:1019100048885F846E847D848C849B84AA84B98487
:10192000C884DF80EE80FD800C811B81AA81B98193
:10193000CE0FD11D0FB6F894DEBF0FBECDBFED01A7
:061940000895F894FFCFAA
:101946000A000A0064000A003C000A003C003C0051
:101956006E0014006E006E00000000000000000023
:101966000001020203030303040404040404040440
:101976000505050505050505050505050505050511
:1019860006060606060606060606060606060606F1
:1019960006060606060606060606060606060606E1
:1019A60007070707070707070707070707070707C1
:1019B60007070707070707070707070707070707B1
:1019C60007070707070707070707070707070707A1
:1019D6000707070707070707070707070707070791
:1019E6000808080808080808080808080808080871
:1019F6000808080808080808080808080808080861
:101A06000808080808080808080808080808080850
:101A16000808080808080808080808080808080840
:101A26000808080808080808080808080808080830
:101A36000808080808080808080808080808080820
:101A46000808080808080808080808080808080810
:101A56000808080808080808080808080808080800
:00000001FF
