:100000000C9478000C9495000C9495000C94950039
:100010000C9495000C9495000C9495000C9495000C
:100020000C9495000C9495000C9495000C949500FC
:100030000C9495000C9495000C9495000C949500EC
:100040000C9495000C9495000C9495000C949500DC
:100050000C9495000C9495000C9495000C949500CC
:100060000C9495000C9495000C9495000C949500BC
:100070000C9495000C9495000C9495000F018096BB
:100080001180FFB103012C2DB203012C2DB3060109
:100090002C2D012C2DB40107C003A20284C101C57F
:1000A000C2020A00C3028A2AC4028AEEC5010E20D7
:1000B000003601C83A0105022A040000007F2B0423
:1000C0000000009F04E010021C07123732292D297E
:1000D000252B3900010310E110031D07062E2C29E2
:1000E0002D2E2E373F0000021013800A2980640055
:1000F00011241FBECFEFD8E0DEBFCDBF12E0A0E0DD
:10010000B1E0E2EAF7E202C005900D92A231B10738
:10011000D9F714E0A2E1B2E001C01D92A532B10707
:10012000E1F70E9429070C94CF130C9400000F9361
:100130001F938AE090E06AE070E04EE150E02AE030
:1001400030E000E010E00E94D8098AE090E06AE028
:1001500070E04AE050E02EE130E00E94D8098AE0E9
:1001600090E06EE170E04EE150E02EE130E00E9460
:10017000D8098EE190E06EE170E04EE150E022E3BC
:1001800030E00E94D8098EE190E062E370E04AE03E
:1001900050E022E330E00E94D8091F910F910895AA
:1001A0000F931F938AE090E06AE070E044E650E02D
:1001B0002AE030E000E010E00E94D8098CE390E0F3
:1001C0006AE070E04CE350E02CE330E00E94D80994
:1001D0008EE690E064E170E04EE650E02EE630E01E
:1001E0000E94D8091F910F9108950F931F93CF93E9
:1001F000DF938230910519F4C0EEDFEF07C001975D
:1002000019F4CFE1D0E002C0C0E0D8EF8AE090E07E
:100210006AE070E048E250E02AE030E08E010E949F
:10022000D80988E290E06AE070E048E250E028E215
:1002300030E00E94D8098AE090E06AE070E04AE08D
:1002400050E028E230E00E94D8098AE090E068E2BD
:1002500070E048E250E028E230E00E94D8098AE0ED
:1002600090E068E270E048E250E026E430E00E946E
:10027000D8098AE090E066E470E048E250E026E4C5
:1002800030E00E94D80982E390E06AE070E042E347
:1002900050E026E430E00E94D8098CE390E06AE068
:1002A00070E04AE550E02AE030E00E94D8098AE593
:1002B00090E06AE070E04AE550E028E230E00E9419
:1002C000D8098AE590E068E270E04CE350E028E26B
:1002D00030E00E94D8098CE390E068E270E04CE3E3
:1002E00050E02AE030E00E94D8098CE390E068E218
:1002F00070E04CE350E026E430E00E94D809DF9142
:10030000CF911F910F9108950F931F93CF93DF9378
:1003100080E090E00E94430981E090E009E110E074
:100320000CC0F8013197F1F70197D9F7CE0101968A
:10033000C1E0D0E0843091050CF4EC01CE010E94C4
:10034000F50088EB9BE0EDCFEF92FF920F931F93A8
:10035000CF93DF9340910001509101017A01EE0C9F
:10036000FF1CEE0CFF1C83EE92E0E80EF91ED70195
:100370002D913C91809121029091220228173907FA
:10038000ACF00296821793078CF0FA01EE0FFF1F74
:10039000EE0FFF1FEB51FD4F0190F081E02D80919A
:1003A000230290912402E817F9072CF4C7ECD2E05D
:1003B00000E010E0D7C102968E179F07BCF3809132
:1003C000E1029091E20201969093E2028093E102B1
:1003D0008091230490912404009791F4E09102010C
:1003E000F09103013197F0930301E0930201EE0FC6
:1003F000FF1FEB5DFD4F81E090E091838083BFC0E4
:1004000081309105B9F4A0910201B0910301FD0181
:100410003297F0930301E0930201EE0FFF1FEB5DB3
:10042000FD4F91838083AA0FBB1FAD5DBD4F8D93A0
:100430009C93A5C082309105B1F4E0910201F09146
:1004400003013296F0930301E09302013297EE0F1D
:10045000FF1FDF01A95DBD4F1D921C92EB5DFD4F9B
:10046000118210828CC08330910571F48091C50295
:100470009091C602019663E070E00E94B4129093DE
:10048000C6028093C5027BC0049709F078C0009132
:10049000020110910301C801840F951F62E070E012
:1004A0000E94B412EB01F801EE0FFF1FEE0FFF1FC9
:1004B000ED51FD4FD701B8011AC020813181428131
:1004C00053818D919C9111979183808312968D9188
:1004D0009C9113979383828311963C932E9313964A
:1004E0005C934E9312976F5F7F4F349614976C17FF
:1004F0007D071CF3A3EEB2E020E030E0E801CC0F72
:10050000DD1FCC0FDD1FCA0FDB1FF801EE0FFF1F31
:10051000EE0FFF1FEB51FD4F11C08881998111969D
:100520009C938E93808191810197821B930B1396EC
:100530009C938E9312972F5F3F4F1496201731078D
:1005400064F38091DF029091E0028130910519F40B
:1005500083E090E010C08330910519F481E090E0D1
:100560000AC08230910519F484E090E004C0049739
:1005700031F482E090E09093E0028093DF020E94E9
:10058000631360E870E00E94B4129093220280939B
:1005900021020E94631360E870E00E94B4129093FD
:1005A0002402809323020E94631365E070E00E949E
:1005B000B412909324048093230440E050E040C0A0
:1005C000FA01EE0FFF1FEB5DFD4F808191810197D6
:1005D000A9F5FD01EE0FFF1FEE0FFF1FED51FD4FBF
:1005E00020813181809121029091220228173907C0
:1005F00029F5AA0FBB1FAA0FBB1FAB51BD4F2D91F1
:100600003C91809123029091240228173907B1F47C
:100610000E94631360E870E00E94B412909322027B
:10062000809321020E94631360E870E00E94B4127C
:10063000909324028093230240E050E04F5F5F4F8D
:10064000A0910001B09101014A175B070CF4B8CFEB
:1006500020E030E04FC04091210250912202D901A8
:10066000E3E0AA0FBB1FEA95E1F7A953BD4F8D91B7
:100670009C91119748175907DCF1F90173E0EE0FCF
:10068000FF1F7A95E1F7E553FD4F80819181841733
:10069000950774F14091230250912402F90163E01F
:1006A000EE0FFF1F6A95E1F7E753FD4F80819181BF
:1006B00048175907ECF016968D919C91179784175F
:1006C0009507B4F00E94631360E870E00E94B412D2
:1006D00090932202809321020E94631360E870E0ED
:1006E0000E94B412909324028093230220E030E011
:1006F0002F5F3F4F80910401909105012817390722
:100700000CF4A9CF53CEA0910001B0910101FD01DD
:10071000EE0FFF1FEE0FFF1FED51FD4F0190F08117
:10072000E02D88819981E817F907CCF08C819D81B3
:100730008E179F07A4F0AA0FBB1FAA0FBB1FAB51B8
:10074000BD4FED91FC918A819B81E817F9073CF040
:100750008E819F818E179F0714F00E9484010F5F86
:100760001F4F2896809104019091050108171907E1
:1007700054F295E2E92E92E0F92EC3EED2E000E0C9
:1007800010E020C0D7018D919C910197A1F4EE0F4C
:10079000FF1FEE0FFF1FED51FD4F2081318188813A
:1007A00099812817390739F48A819B8128173907DD
:1007B00011F40E9484010F5F1F4FE2E0F0E0EE0EA3
:1007C000FF1E2496E0910001F09101010E171F0712
:1007D000CCF2DF91CF911F910F91FF90EF90089590
:1007E0008091DF029091E0028130910529F5E0913E
:1007F0000001F0910101A3EEB2E020E030E012C070
:100800002F5F3F4F14968D919C91159711969C9355
:100810008E9316968D919C91179713969C938E9319
:10082000129714962E173F075CF3EE0FFF1FEE0F83
:10083000FF1FED51FD4F27C08230910541F5E0913A
:100840000001F0910101A3EEB2E020E030E012C01F
:100850002F5F3F4F14968D919C91159711969C9305
:100860008E9316968D919C91179713969C938E93C9
:10087000129714962E173F075CF3EE0FFF1FEE0F33
:10088000FF1FEB51FD4F80819181019754C0833050
:10089000910529F5E0910001F0910101A3EEB2E08C
:1008A00020E030E012C02F5F3F4F14968D919C9155
:1008B000159711969C938E9316968D919C911797F0
:1008C00013969C938E93129714962E173F075CF302
:1008D000EE0FFF1FEE0FFF1FED51FD4F29C00497D4
:1008E00019F020E030E029C0E0910001F091010111
:1008F000A3EEB2E020E030E012C02F5F3F4F14962D
:100900008D919C91159711969C938E9316968D912F
:100910009C91179713969C938E93129714962E176B
:100920003F075CF3EE0FFF1FEE0FFF1FEB51FD4F74
:1009300080819181019691838083F901EE0FFF1FE1
:10094000EE0FFF1FED51FD4F8081918180389105A1
:1009500024F08F77907091838083F901EE0FFF1F51
:10096000EE0FFF1FEB51FD4F808191818038910583
:1009700024F08F77907091838083F901EE0FFF1F31
:10098000EE0FFF1FED51FD4F8081918197FF04C055
:1009900080589F4F91838083F901EE0FFF1FEE0F68
:1009A000FF1FEB51FD4F8081918197FF04C080585C
:1009B0009F4F918380830E94A40108951092240484
:1009C000109223041092C6021092C5021092E20205
:1009D0001092E1022AE030E03093C8022093C7026F
:1009E0003093CA022093C90284E690E09093CC022F
:1009F0008093CB023093CE022093CD0226E430E0E8
:100A00003093D0022093CF028EE190E09093D202F7
:100A10008093D1023093D4022093D3023093D60234
:100A20002093D5022EE630E03093D8022093D702EF
:100A300084E190E09093DA028093D9023093DC0253
:100A40002093DB023093DE022093DD02209102012D
:100A5000309103014091000150910101F901EE0F25
:100A6000FF1FEB5DFD4FC90161E070E003C06193C2
:100A70007193019684179507D4F3E5E2F2E080E0E4
:100A800090E003C011921192019682179307D4F35C
:100A90001092E0021092DF02E3EEF2E080E090E0DC
:100AA00024E630E091838083338322830196349659
:100AB00080359105B9F70E94631360E870E00E94E9
:100AC000B41290932202809321020E94631360E883
:100AD00070E00E94B41290932402809323028091CC
:100AE0002302909124024E9781F3089510922404DA
:100AF000109223041092C6021092C5021092E202D4
:100B00001092E1021092C8021092C70280E490E0B5
:100B10009093CA028093C9022FE730E03093CC0251
:100B20002093CB029093CE028093CD029093D0027B
:100B30008093CF021092D2021092D1029093D402ED
:100B40008093D3023093D6022093D5021092D8021C
:100B50001092D7021092DA021092D90281E090E04E
:100B60009093DC028093DB029093DE028093DD029F
:100B70002091020130910301409100015091010147
:100B8000F901EE0FFF1FEB5DFD4FC90161E070E061
:100B900003C061937193019684179507D4F3E5E23E
:100BA000F2E080E090E003C011921192019682176A
:100BB0009307D4F31092E0021092DF02EBE1F2E02F
:100BC0008EEC9FEF24E630E0918380833383228391
:100BD0000196349680359105B9F70E94631360E859
:100BE00070E00E94B41290932202809321020E942E
:100BF000631360E870E00E94B41290932402809323
:100C0000230280912302909124024E9781F308954C
:100C1000EF92FF920F931F93CF93DF93E090020127
:100C2000F0900301E701CC0FDD1FCC0FDD1FCD518C
:100C3000DD4F8701000F111F0B5D1D4F18C0F8011C
:100C400080819181288139816A817B81019721F49A
:100C5000C90140E050E003C0C9014FE150E00E94EB
:100C600028090894E11CF11C24960E5F1F4F809107
:100C70000001909101018E159F050CF780912304CE
:100C8000909124040197A9F56091230270912402A8
:100C9000809121029091220240E058EF0E942809A1
:100CA000809121029091220260912302709124028E
:100CB0006F5F7F4F019640E058EF0E9428096091D6
:100CC0002302709124026F5F7F4F809121029091E7
:100CD000220240E058EF0E94280980912102909161
:100CE00022026091230270912402019640E058EFA5
:100CF00034C060912302709124028091210290916E
:100D000022024FE158EF0E94280980912102909120
:100D1000220260912302709124026F5F7F4F01963F
:100D20004FE158EF0E94280960912302709124023C
:100D30006F5F7F4F80912102909122024FE158EF27
:100D40000E94280980912102909122026091230241
:100D50007091240201964FE158EF0E942809C7ECD8
:100D6000D2E0EE24FF2410C06A817B814C815D813A
:100D70002E813F818881998100E010E00E94D8098E
:100D80000894E11CF11C28968091040190910501C2
:100D9000E816F9064CF3DF91CF911F910F91FF9068
:100DA000EF900895AF92BF92CF92DF92EF92FF92B1
:100DB0000F931F93CF93DF935C0180E090E060E09E
:100DC00070E04FE750E02FE730E00E94DA0840E89B
:100DD000E42EF12C30C088819981081719072CF076
:100DE0008C819D81801791076CF48A819B81E81624
:100DF000F9062CF08E819F818E159F051CF4C5018C
:100E00000E941E090894C11CD11C289680910401DF
:100E100090910501C816D906F4F201501040002344
:100E200029F0C7ECD2E0CC24DD24F0CF0894E1080F
:100E3000F108EE2019F000E810E0F3CFDF91CF9138
:100E40001F910F91FF90EF90DF90CF90BF90AF90E8
:100E500008958F929F92AF92BF92CF92DF92EF92BE
:100E6000FF920F931F93CF93DF930E9485088FE12A
:100E700090E00E9443090E94DE040E9408065098F8
:100E8000519854985598589A599A5C9A5D9AC1E02D
:100E9000D0E0E1E0AE2EB12C74E0E72EF12C03E0BF
:100EA00010E062E0C62ED12C59E1852E912C2091C4
:100EB000C5023091C6022115310579F4489B31C035
:100EC0008091DF029091E0024C9B3CC0009711F0B2
:100ED0004D9B45C0499956C017C021303105E1F4FA
:100EE0004D9B1FC0499B2AC0489908C08091DF02D2
:100EF0009091E002039709F041C044C04C9942C070
:100F00008091DF029091E002049709F43BC0D092F7
:100F1000E002C092DF0236C02230310599F54999CE
:100F20000BC08091DF029091E002019759F110937C
:100F3000E0020093DF0226C048990BC08091DF02D7
:100F40009091E0020297F1F0F092E002E092DF026D
:100F500019C04C990BC08091DF029091E002039779
:100F600089F0B092E002A092DF020CC04D990AC055
:100F70008091DF029091E002049721F03093E0022B
:100F80002093DF02C130D105A1F48091E10290915C
:100F9000E2020A97F1F48FE190E00E94430980E1B8
:100FA00097E2F4013197F1F70197D9F70E9476059E
:100FB00003C0C230D10569F48091E1029091E20250
:100FC000449729F48FE190E00E944309FBCFC2E0EF
:100FD000D0E08FE190E00E94D2060E94F0030E94D0
:100FE000080665CF6F927F929F92AF92BF92CF9289
:100FF000DF92EF92FF920F931F93CF93DF93FC0149
:10100000EC012196949080E9682E81E0782E6CC0E6
:10101000AE014F5F5F4FFE0184912A988EBD0DB4E3
:1010200007FEFDCF9A012F5F3F4FFA015491452FE4
:101030004F77F901942F08C084912A9A8EBD0DB480
:1010400007FEFDCF319691509923B1F7E901C40F06
:10105000D11D57FF48C0FE012196E4916E2F70E02C
:101060006F3F710511F464EF71E080E090E00E9441
:1010700046105B016C0120E030E04AE755E40E9435
:10108000680E7B018C0120E030E040E85FE30E94C5
:10109000C20F88231CF461E070E022C0C801B701D0
:1010A00020E03FEF4FE757E40E94620F1816A4F4C8
:1010B000C601B50120E030E040E251E40E94680E34
:1010C0000E94920C05C0C3010197F1F76150704076
:1010D00061157105C1F707C0C801B7010E94920CE4
:1010E000CB010197F1F79A94992009F091CFDF9104
:1010F000CF911F910F91FF90EF90DF90CF90BF9015
:10110000AF909F907F906F9008951092130210926D
:101110001202229A219A209A279A259A249A28988C
:101120002F982D982C9A8CB580658CBD8CB58C7FB2
:101130008CBD8DB58E7F8DBD8CB58F7D8CBD8CB5F6
:10114000837F8CBD299A88EE93E020E931E0F90194
:101150003197F1F70197D9F7299888EE93E020E9C4
:1011600031E0F9013197F1F70197D9F7299A88EE23
:1011700093E020E931E0F9013197F1F70197D9F7D0
:101180008CE790E00E94F20787EB90E00E94F20764
:1011900084EC90E00E94F207239A84B5816884BDB4
:1011A00085B5816085BD86E087BD08958CB58F7B50
:1011B0008CBD0895982F2A988AE28EBD0DB407FE43
:1011C000FDCF2A9A1EBC0DB407FEFDCF80911202FE
:1011D000980F2A9A9EBD0DB407FEFDCF2A9A1EBC19
:1011E0000DB407FEFDCF840F2A9A8EBD0DB407FE05
:1011F000FDCF2A988BE28EBD0DB407FEFDCF2A9A53
:101200001EBC0DB407FEFDCF80911302680F2A9A11
:101210006EBD0DB407FEFDCF2A9A1EBC0DB407FEAD
:10122000FDCF820F2A9A8EBD0DB407FEFDCF2A98FE
:101230008CE28EBD0DB407FEFDCF08952A9A9EBDA7
:101240000DB407FEFDCF8EBD0DB407FEFDCF089592
:10125000CF93DF93FC019B01EA0197FD11C0803819
:10126000910574F477FD0CC0603871054CF431962B
:10127000AF012F5F3F4F0E94DA08CE010E941E0986
:10128000DF91CF9108950F931F93CF93DF93EC01DC
:1012900080E090E060E070E04FE750E02FE730E062
:1012A0000E94DA0800E810E8CE010E941E091150E1
:1012B000D9F70150C1F7DF91CF911F910F91089598
:1012C000882311F480E201C081E22A988EBD0DB41A
:1012D00007FEFDCF089570E06C7F707033E0660FFD
:1012E000771F3A95E1F746954695469550E0642B71
:1012F000752B90E0887F9070982F8827682B792B2A
:10130000CB010895909315028093140270931702F5
:1013100060931602109219021092180210921B028A
:1013200010921A0210921F0221E020931E028FEFEA
:101330009FEF90931D0280931C022093200208953A
:10134000909319028093180270931B0260931A0203
:10135000089590931D0280931C020895882309F438
:1013600081E080931E020895809320020895809169
:10137000140290911502089580911602909117021F
:101380000895837080931F02813031F0813060F0C6
:10139000823051F0833041F480911602909117020F
:1013A0009093150280931402089580911F0208956E
:1013B0002F923F924F925F926F927F928F929F9265
:1013C000AF92BF92CF92DF92EF92FF920F931F9353
:1013D000CF93DF937C01EB016A011801442455246B
:1013E000A901461B570B57FF03C0509541955F4F0E
:1013F000C6018E199F0997FF03C0909581959F4F55
:10140000841795079CF491E0492E512CCE018E252E
:101410009F25C827D9277E01E826F926C9018C25F2
:101420009D25282739276901C826D926CE14DF042F
:1014300084F4C6018E259F25C826D9267601E82684
:10144000F926C9018C279D2728273927E901C827B4
:10145000D92736016E187F085901AC1ABD0AB7FEAC
:1014600004C0B094A194B108B394C217D30724F078
:1014700088248A94982C03C081E0882E912CC30183
:1014800062E070E00E94B4128B0116C04114510456
:1014900019F0CE01B70102C0C701BE01A1010E942F
:1014A00028090A191B0917FF04C0C80DD91D060D0C
:1014B000171D0894E11CF11CCE14DF043CF7DF91EA
:1014C000CF911F910F91FF90EF90DF90CF90BF9041
:1014D000AF909F908F907F906F905F904F903F90D4
:1014E0002F9008952F923F924F925F926F927F922A
:1014F0008F929F92AF92BF92CF92DF92EF92FF9224
:101500000F931F93DF93CF9300D000D0CDB7DEB7FA
:101510006C01FB014A0159013801209114023091FC
:101520001502821793070CF09CC04091160250914F
:101530001702641775070CF094C0C4018C0D9D1D33
:10154000281739071CF449018C189D08C5018E0F16
:101550009F1F481759071CF45A01AE1ABF0AEE2004
:1015600009F05EC07F01C982DA8285010E0F1F1F5C
:101570001801089421083108C601BF01A601910194
:101580000E94DA08250103C0C3010E941E090894C5
:10159000410851082FEF42162FEF5206A9F7C80C49
:1015A000D91C260108944108510889819A81B70104
:1015B000A20197010E94DA089C828B8203C0C301BA
:1015C0000E941E098B819C8101979C838B838F5F76
:1015D0009F4FA9F7C601B701A60191010E94DA0841
:1015E00003C0C3010E941E090894A108B108BFEFFF
:1015F000AB16BFEFBB06A9F789819A81B801A2019A
:1016000098010E94DA0803C0C3010E941E090894D1
:1016100081089108EFEF8E16EFEF9E06A9F721C023
:10162000A60141505040480D591D9F0121503040A6
:101630002A0D3B1DC601BF010E94DA0865010CC0DE
:10164000C3010E941E090894E108F1081E141F043A
:10165000BCF30894C108D1081C141D0414F47401CF
:10166000F5CF0F900F900F900F90CF91DF911F91BA
:101670000F91FF90EF90DF90CF90BF90AF909F9031
:101680008F907F906F905F904F903F902F90089534
:101690002F923F924F925F926F927F928F929F9282
:1016A000AF92BF92CF92DF92EF92FF920F931F9370
:1016B000DF93CF93CDB7DEB72C970FB6F894DEBF8C
:1016C0000FBECDBF282F8A3079F420911E0230E062
:1016D000B3E0220F331FBA95E1F780911A0290917F
:1016E0001B02820F931FF1C08D3009F4F6C0609089
:1016F00018027090190240911A0250911B025B83EC
:101700004A8380911C0290911D0298878F8390914B
:101710001E02998380911402909115026816790631
:101720000CF09CC08091160290911702481759073F
:101730000CF094C0F981EF2FF0E0FC87EB87CF012C
:10174000880F991F880F991F8E0F9F1F860D971D59
:10175000181619060CF082C0CF01F3E0880F991F0C
:10176000FA95E1F7840F951F181619060CF076C04C
:1017700085E0289F10011124CC24DD244424552425
:1017800025E0C21611F4FF2402C0F101F490920189
:10179000260D371D3D832C838A809B8054011E8239
:1017A000A601460D571D5A874987F0FE3AC0809121
:1017B0001F0259815130C1F480FF0EC060911402A4
:1017C00070911502661977096C197D098B859C85C6
:1017D000681B790BC50103C089859A85B5014F81C6
:1017E00058850E9428091DC080FF0FC06091140217
:1017F000709115026619770964197509EB85FC85E6
:101800006E1B7F0BC401AF0105C08C819D81B401AB
:101810004B855C859A010F811885EE24E3940E9424
:10182000720AFE81FF5FFE830894A11CB11C2B8508
:101830003C85820E931EF83011F0F694B6CF0894D2
:10184000C11CD11C4B855C85440E551E0894211C7F
:10185000311C56E0C516D10409F092CF80911E02CA
:10186000682F70E0AB01440F551F460F571F440F00
:10187000551F8091180290911902480F591F5093DB
:1018800019024093180280912002882331F18AEFD7
:101890009FEFFC016E9FC0016F9F900D7E9F900D8A
:1018A00011242091140230911502820F931F841786
:1018B00095079CF423E0660F771F2A95E1F7809146
:1018C0001A0290911B02860F971F90931B02809320
:1018D0001A0210921902109218022C960FB6F89460
:1018E000DEBF0FBECDBFCF91DF911F910F91FF9053
:1018F000EF90DF90CF90BF90AF909F908F907F90B0
:101900006F905F904F903F902F900895CF93DF930B
:10191000EC0102C00E94480B89918823D9F7DF911E
:10192000CF910895EF92FF920F931F937B018C014B
:1019300020E030E040E05FE40E94920F88238CF0CA
:10194000C801B70120E030E040E05FE40E940A0EE9
:101950000E94F20F9B01AC012050304040405048A3
:1019600006C0C801B7010E94F20F9B01AC01B9018A
:10197000CA011F910F91FF90EF900895A0E0B0E091
:10198000E4ECFCE00C94DB12DC012B01FA019C91ED
:10199000923008F439C1EB018881823008F433C1F8
:1019A000943069F4843009F02FC111969C911197FD
:1019B0008981981709F428C1A6E0B1E025C18430D7
:1019C00009F421C18230A9F4923009F01DC19A01B5
:1019D000AD0188E0EA010990AE01E90109929E019A
:1019E0008150C1F7E201898111969C9189238183FD
:1019F00008C1923009F407C112962D903C901397BC
:101A0000EB018A819B811496AD90BD90CD90DC90C6
:101A10001797EC80FD800E811F819101281B390BE7
:101A2000B90137FF04C066277727621B730B60324A
:101A300071050CF061C0121613066CF537014801F0
:101A4000062E04C096948794779467940A94D2F7EC
:101A500021E030E040E050E004C0220F331F441F7B
:101A6000551F6A95D2F721503040404050402E21FA
:101A70003F2140235123211531054105510521F016
:101A800021E030E040E050E079018A01E628F728C3
:101A9000082919293CC0232BD1F1260E371E350108
:101AA0004601062E04C096948794779467940A940E
:101AB000D2F721E030E040E050E004C0220F331FB5
:101AC000441F551F6A95D2F7215030404040504086
:101AD0002A213B214C215D2121153105410551056C
:101AE00021F021E030E040E050E059016A01A628F1
:101AF000B728C828D9280BC0821593052CF01C01E3
:101B0000AA24BB24650103C0EE24FF24870111969B
:101B10009C91D20111968C91981709F445C0992394
:101B200039F0A80197012A193B094C095D0906C043
:101B3000A60195012E193F09400B510B57FD08C016
:101B400011823382228224833583468357831DC0CA
:101B500081E081833382228288279927DC01821BDE
:101B6000930BA40BB50B84839583A683B7830DC019
:101B7000220F331F441F551F248335834683578309
:101B80008281938101979383828324813581468169
:101B90005781DA01C9010197A109B1098F5F9F4FF0
:101BA000AF4FBF4328F30BC0918333822282EA0CEC
:101BB000FB1C0C1D1D1DE482F5820683178383E048
:101BC0008083248135814681578157FF1AC0C9011E
:101BD000AA2797FDA095BA2F81709070A070B07061
:101BE0005695479537952795822B932BA42BB52B8C
:101BF00084839583A683B78382819381019693839F
:101C00008283DF0101C0D201CD01CDB7DEB7E2E1B1
:101C10000C94F712A0E2B0E0E0E1FEE00C94E712D1
:101C200069837A838B839C832D833E834F8358877C
:101C3000E9E0EE2EF12CEC0EFD1ECE010196B7016F
:101C40000E94E3118E010F5E1F4FCE010596B80171
:101C50000E94E3118A8991E089278A8BC701B80124
:101C6000AE01475E5F4F0E94BE0C0E940E11A0960F
:101C7000E6E00C940313A0E2B0E0E1E4FEE00C9493
:101C8000E71269837A838B839C832D833E834F8302
:101C90005887F9E0EF2EF12CEC0EFD1ECE010196D7
:101CA000B7010E94E3118E010F5E1F4FCE01059612
:101CB000B8010E94E311C701B801AE01475E5F4F52
:101CC0000E94BE0C0E940E11A096E6E00C94031335
:101CD000A0E2B0E0EEE6FEE00C94DB1269837A83CA
:101CE0008B839C832D833E834F835887CE0101963F
:101CF000BE01675F7F4F0E94E311CE010596BE01D2
:101D00006F5E7F4F0E94E3119985923088F0898938
:101D10008230C8F0943019F4823051F404C0843019
:101D200029F4923081F486E091E0C6C0923049F403
:101D300020E09A858A89981321E02A87CE010996A6
:101D4000BBC0823049F420E09A858A89981321E04B
:101D50002A8BCE014196B0C02D843E844F84588892
:101D60006D887E888F88988CEE24FF248701AA24B2
:101D7000BB24650140E050E060E070E0E0E0F0E0AE
:101D8000C10181709070892BE9F0E60CF71C081DE9
:101D9000191D9A01AB012A0D3B1D4C1D5D1D80E0F4
:101DA00090E0A0E0B0E0E614F7040805190520F47F
:101DB00081E090E0A0E0B0E0BA01A901480F591F0E
:101DC0006A1F7B1FAA0CBB1CCC1CDD1C97FE08C025
:101DD00081E090E0A0E0B0E0A82AB92ACA2ADB2A74
:101DE0003196E032F10549F0660C771C881C991C8D
:101DF0005694479437942794C3CFFA85EA892B8960
:101E00003C898B859C85280F391F2E5F3F4F17C05B
:101E1000CA0181709070892B61F016950795F7942F
:101E2000E79480E090E0A0E0B0E8E82AF92A0A2BE5
:101E30001B2B76956795579547952F5F3F4F77FDFD
:101E4000E7CF0CC0440F551F661F771F17FD416079
:101E5000EE0CFF1C001F111F21503040403090E05D
:101E6000590790E0690790E4790760F32B8F3C8F66
:101E7000DB01CA018F779070A070B070803491053B
:101E8000A105B10561F447FD0AC0E114F1040105A3
:101E9000110529F0405C5F4F6F4F7F4F40781A8EDD
:101EA000FE1711F081E08A8F4D8F5E8F6F8F78A3C0
:101EB00083E0898FCE0149960E940E11A096E2E13F
:101EC0000C94F712A8E1B0E0E8E6FFE00C94E7120A
:101ED00069837A838B839C832D833E834F835887CA
:101EE00089E0E82EF12CEC0EFD1ECE010196B70123
:101EF0000E94E3118E010F5E1F4FCE010596B801BF
:101F00000E94E3118985823040F08989823028F06F
:101F1000C701B8010E945B1201C08FEF6896E6E02E
:101F20000C940313A8E1B0E0E8E9FFE00C94E71299
:101F300069837A838B839C832D833E834F83588769
:101F400089E0E82EF12CEC0EFD1ECE010196B701C2
:101F50000E94E3118E010F5E1F4FCE010596B8015E
:101F60000E94E3118985823040F08989823028F00F
:101F7000C701B8010E945B1201C08FEF6896E6E0CE
:101F80000C940313A8E1B0E0E8ECFFE00C94E71236
:101F900069837A838B839C832D833E834F83588709
:101FA00089E0E82EF12CEC0EFD1ECE010196B70162
:101FB0000E94E3118E010F5E1F4FCE010596B801FE
:101FC0000E94E3118985823040F08989823028F0AF
:101FD000C701B8010E945B1201C081E06896E6E08B
:101FE0000C940313ACE0B0E0E8EFFFE00C94EB12CC
:101FF00069837A838B839C83CE010196BE016B5FDC
:102000007F4F0E94E3118D81823061F1823050F167
:10201000843021F48E81882351F12EC02F813885A0
:1020200037FD20C06E812F3131051CF06623F9F099
:1020300023C08EE190E0821B930B29853A854B8566
:102040005C8504C056954795379527958A95D2F7B4
:102050006623B1F050954095309521953F4F4F4FF5
:102060005F4F0EC020E030E040E050E009C02FEFAD
:102070003FEF4FEF5FE704C020E030E040E050E882
:10208000B901CA012C96E2E00C940713A8E0B0E075
:10209000ECE4F0E10C94E3127B018C016115710515
:1020A0008105910519F482E0898360C083E089830A
:1020B0008EE1C82ED12CDC82CB82ED82FE820F8392
:1020C0001887C801B7010E94BF10FC013197F7FFC4
:1020D0003BC0222733272E1B3F0B57016801022EDE
:1020E00004C0D694C794B794A7940A94D2F740E05A
:1020F00050E060E070E081E090E0A0E0B0E004C07B
:10210000880F991FAA1FBB1F2A95D2F70197A10913
:10211000B1098E219F21A023B1230097A105B1050C
:1021200021F041E050E060E070E04A295B296C2931
:102130007D294D835E836F8378878EE190E08E1BCF
:102140009F0B9C838B8312C0309781F00E2E04C0AE
:10215000EE0CFF1C001F111F0A94D2F7ED82FE82C5
:102160000F831887CE1ADF0ADC82CB821A82CE0157
:1021700001960E940E112896EAE00C94FF12EF924D
:10218000FF920F931F937B018C0180E0E81680E0A3
:10219000F80681E0080780E0180788F48FEFE8165A
:1021A000F1040105110531F028F088E090E0A0E08D
:1021B000B0E017C080E090E0A0E0B0E012C080E0A6
:1021C000E81680E0F80680E0080781E0180728F0AC
:1021D00088E190E0A0E0B0E004C080E190E0A0E001
:1021E000B0E020E230E040E050E0281B390B4A0B21
:1021F0005B0B04C016950795F794E7948A95D2F780
:10220000F701E25FFE4F8081281B31094109510926
:10221000C9011F910F91FF90EF900895DF92EF9207
:10222000FF920F931F93FC01E480F58006811781D4
:10223000D1808081823048F480E090E0A0E1B0E07D
:10224000E82AF92A0A2B1B2BA5C0843009F49FC069
:10225000823021F4EE24FF24870105C0E114F1044B
:102260000105110519F4E0E0F0E096C06281738188
:102270009FEF623879070CF05BC022E83FEF261B26
:10228000370B2A3131052CF020E030E040E050E0FF
:102290002AC0B801A701022E04C07695679557950C
:1022A00047950A94D2F781E090E0A0E0B0E004C046
:1022B000880F991FAA1FBB1F2A95D2F70197A10962
:1022C000B1098E219F21A023B1230097A105B1055B
:1022D00021F081E090E0A0E0B0E09A01AB01282B72
:1022E000392B4A2B5B2BDA01C9018F779070A070D4
:1022F000B07080349105A105B10539F427FF09C0FC
:10230000205C3F4F4F4F5F4F04C0215C3F4F4F4F0A
:102310005F4FE0E0F0E02030A0E03A07A0E04A079D
:10232000A0E45A0710F0E1E0F0E079018A0127C04B
:102330006038710564F5FB01E158FF4FD801C70112
:102340008F779070A070B07080349105A105B105B1
:1023500039F4E7FE0DC080E490E0A0E0B0E004C0F6
:102360008FE390E0A0E0B0E0E80EF91E0A1F1B1F0B
:1023700017FF05C016950795F794E794319687E007
:1023800016950795F794E7948A95D1F705C0EE2442
:10239000FF248701EFEFF0E06E2F679566276795C2
:1023A000902F9F77D794DD24D7948E2F8695492F31
:1023B000462B582F5D29B701CA011F910F91FF903D
:1023C000EF90DF900895FC01DB0140815181228173
:1023D000622F6F7770E0221F2227221F9381892F9F
:1023E000880F822B282F30E0991F9927991F11966B
:1023F0009C93119721153105A9F5411551056105EA
:10240000710511F482E037C082E89FEF13969C9328
:102410008E9312979A01AB0167E0220F331F441F7E
:10242000551F6A95D1F783E08C930DC0220F331F9F
:10243000441F551F12968D919C91139701971396E7
:102440009C938E931297203080E0380780E04807F5
:1024500080E4580758F314962D933D934D935C9365
:10246000179708952F3F310579F4411551056105FE
:10247000710519F484E08C93089564FF03C081E032
:102480008C9312C01C9210C02F57304013963C936F
:102490002E93129783E08C9387E0440F551F661F9D
:1024A000771F8A95D1F7706414964D935D936D9361
:1024B0007C93179708951F93DC01FB019C91923048
:1024C00008F447C08081823008F443C0943051F44E
:1024D00011961C91843099F58181682F70E0611B01
:1024E00071093FC0843021F0923031F48230B9F16B
:1024F0008181882389F12DC011961C91119782301A
:10250000F1F081811817D9F412962D913C9113970F
:10251000828193818217930794F028173907BCF0C2
:1025200014968D919D910D90BC91A02D24813581A3
:1025300046815781281739074A075B0718F411238A
:1025400041F00AC082179307A407B50740F411238E
:1025500019F061E070E005C06FEF7FEF02C060E04E
:1025600070E0CB011F91089597FB092E07260AD032
:1025700077FD04D00CD006D000201AF47095619538
:102580007F4F0895F6F7909581959F4F0895AA1B68
:10259000BB1B51E107C0AA1FBB1FA617B70710F04E
:1025A000A61BB70B881F991F5A95A9F78095909580
:1025B000BC01CD0108952F923F924F925F926F928E
:1025C0007F928F929F92AF92BF92CF92DF92EF92C3
:1025D000FF920F931F93CF93DF93CDB7DEB7CA1B44
:1025E000DB0B0FB6F894DEBF0FBECDBF09942A886F
:1025F000398848885F846E847D848C849B84AA8417
:10260000B984C884DF80EE80FD800C811B81AA81A3
:10261000B981CE0FD11D0FB6F894DEBF0FBECDBF6E
:10262000ED010895A0E0B0E0E8E1F3E10C94E312DD
:10263000EC01A880B980CA80DB80A114B104C10478
:10264000D10441F484E2A82E89EDB82E8BE5C82E82
:1026500087E0D82EC601B5012DE133EF41E050E00F
:102660000E94921327EA31E440E050E00E94731385
:102670007B018C01C601B5012DE133EF41E050E053
:102680000E949213CA01B9012CEE34EF4FEF5FEFB5
:102690000E9473136E0D7F1D801F911F97FF04C052
:1026A0006150704080409048688379838A839B831F
:1026B0009B013F77C901CDB7DEB7EAE00C94FF126A
:1026C0000E94121308958EE092E00E941213089562
:1026D000A0E0B0E080930E0290930F02A09310024E
:1026E000B09311020895629FD001739FF001829F01
:1026F000E00DF11D649FE00DF11D929FF00D839F91
:10270000F00D749FF00D659FF00D9927729FB00D2D
:10271000E11DF91F639FB00DE11DF91FBD01CF0140
:102720001124089597FB092E05260ED057FD04D0DD
:1027300014D00AD0001C38F450954095309521955E
:102740003F4F4F4F5F4F0895F6F7909580957095E6
:1027500061957F4F8F4F9F4F0895A1E21A2EAA1BBC
:10276000BB1BFD010DC0AA1FBB1FEE1FFF1FA21741
:10277000B307E407F50720F0A21BB30BE40BF50B3E
:10278000661F771F881F991F1A9469F760957095C7
:10279000809590959B01AC01BD01CF010895F894FF
:0227A000FFCF69
:1027A2004F003B0003000000000000000000000199
:1027B20002020303030304040404040404040505DD
:1027C20005050505050505050505050505050606B5
:1027D2000606060606060606060606060606060697
:1027E2000606060606060606060606060606070785
:1027F2000707070707070707070707070707070767
:102802000707070707070707070707070707070756
:102812000707070707070707070707070707070746
:102822000707070707070707070707070707080834
:102832000808080808080808080808080808080816
:102842000808080808080808080808080808080806
:1028520008080808080808080808080808080808F6
:1028620008080808080808080808080808080808E6
:1028720008080808080808080808080808080808D6
:1028820008080808080808080808080808080808C6
:1028920008080808080808080808080808080808B6
:1028A20008080808080808080808080808080100B5
:0228B200000024
:00000001FF
